:1000000009C016C015C015C013C012C011C010C061
:100010000FC028C011241FBECFE9CDBF20E0A0E64D
:10002000B0E001C01D92A736B207E1F74BD0B5C0D2
:10003000E7CF1F920F920FB60F9211248F939F93C9
:100040008EE682BF80916500909166000196909344
:100050006600809365009F918F910F900FBE0F9067
:100060001F9018951F920F920FB60F9211248F9325
:100070009F9380916000882359F084B195B190934B
:1000800062008093610083E087B9109260000AC02B
:1000900084B195B1909364008093630017B881E0B8
:1000A0008093600000C09F918F910F900FBE0F90C2
:1000B0001F901895C09A10926600109265000895DE
:1000C000C098089580E886BD96E096BD91E097BB04
:1000D00018BA1FBC95E093BF9EE692BF16BE19BC2E
:1000E00092E099BF1BBE15BE88B914BA84B388626A
:1000F00084BB83E087B984E083B989EA86B9CAEA18
:10010000D0E0F89420916300309164008091610008
:1001100090916200E0916500F09166007894C0993A
:1001200005C0293C310568F3C5DFEBCF2E31310521
:10013000F0F0BE011ED06F5F7F4FCB01880F991F7B
:10014000880F991F880F991F861B970B9C01369566
:10015000322F222737952795820F931F880F991FDB
:10016000880F991F880F991FE817F90750F2A8DF29
:10017000C8CFAA1BBB1B51E107C0AA1FBB1FA617F4
:10018000B70710F0A61BB70B881F991F5A95A9F740
:0E01900080959095BC01CD010895F894FFCFA5
:00000001FF
