S02000004F7574646F6F725F4C696768745F436F6E74726F6C6C65722E737265633E
S113000009C021C020C020C01EC01DC01CC01BC010
S11300101AC04DC011241FBECFE9CDBF10E0A0E629
S1130020B0E0E6EAF2E002C005900D92A236B10714
S1130030D9F720E0A2E6B0E001C01D92AD36B207C8
S1130040E1F779D02EC1DCCF1F920F920FB60F9239
S113005011248F939F938EE682BF80916B009091C1
S11300606C00019690936C0080936B00809160000B
S1130070815019F08093600013C08BE3809360007B
S1130080809165009091660090936800809367006A
S11300908091690090916A00909366008093650056
S11300A09F918F910F900FBE0F901F9018951F92E4
S11300B00F920FB60F9211248F939F938091620039
S11300C0882359F084B195B19093640080936300C0
S11300D083E087B9109262000AC084B195B190930D
S11300E06A008093690017B881E08093620000C0C1
S11300F09F918F910F900FBE0F901F901895C09AEB
S113010010926C0010926B008FEF9FEF9093680039
S11301108093670090936600809365000895C0986B
S11301208FEF9FEF90936800809367009093660031
S113013080936500089580E886BD96E096BD91E0C1
S113014097BB18BA1FBC95E093BF9EE692BF16BE3C
S113015019BC92E099BF1BBE15BE88B914BA84B30A
S1130160886284BB83E087B984E083B989EA86B96D
S113017085B7877E85BF01E0CCECD0E06894FF248E
S1130180F1F8E12CF894209165003091660080919B
S1130190670090916800281B390B8091630090914F
S11301A06400243131050CF05CC02D3E3F4F0CF44B
S11301B05CC020916500309166002F3F3F4F09F4E9
S11301C058C020916700309168002F3F3F4F09F4D9
S11301D050C0C0990CC01130E1F580916900909134
S11301E06A008D32914080F18ADF102F32C01230C4
S11301F039F42091690030916A002E31310510F1F3
S1130200E0916B00F0916C00BE0137D06F5F7F4FBF
S1130210CB01880F991F880F991F880F991F861B80
S1130220970B9C013695322F222737952795820FFD
S1130230931F880F991F880F991F880F991FE8171C
S1130240F90738F06CDF05C0102F03C01F2D01C063
S11302501E2D78948BE792E90197F1F700C0000016
S113026091CFC09BBACF102FCBCFC09BEFCF1F2D08
S1130270C0CFC09BEDCF1E2DC3CFAA1BBB1B51E12A
S113028007C0AA1FBB1FA617B70710F0A61BB70B02
S1130290881F991F5A95A9F780959095BC01CD01A7
S10902A00895F894FFCF5D
S10502A63B0017
S9030000FC
