S02000004F7574646F6F725F4C696768745F436F6E74726F6C6C65722E737265633E
S113000009C021C020C020C01EC01DC01CC01BC010
S11300101AC04DC011241FBECFE9CDBF10E0A0E629
S1130020B0E0E4E7F2E002C005900D92A236B10719
S1130030D9F720E0A2E6B0E001C01D92AD36B207C8
S1130040E1F779D015C1DCCF1F920F920FB60F9252
S113005011248F939F938EE682BF80916B009091C1
S11300606C00019690936C0080936B00809160000B
S1130070815019F08093600013C08BE3809360007B
S1130080809165009091660090936800809367006A
S11300908091690090916A00909366008093650056
S11300A09F918F910F900FBE0F901F9018951F92E4
S11300B00F920FB60F9211248F939F938091620039
S11300C0882359F084B195B19093640080936300C0
S11300D083E087B9109262000AC084B195B190930D
S11300E06A008093690017B881E08093620000C0C1
S11300F09F918F910F900FBE0F901F901895C09AEB
S113010010926C0010926B008FEF9FEF9093680039
S11301108093670090936600809365000895C0986B
S11301208FEF9FEF90936800809367009093660031
S113013080936500089580E886BD96E096BD91E0C1
S113014097BB18BA1FBC95E093BF9EE692BF16BE3C
S113015019BC92E099BF1BBE15BE88B914BA84B30A
S1130160886284BB83E087B984E083B989EA86B96D
S113017085B7877E85BF0CEC10E0F894209165006C
S1130180309166008091670090916800281B390BBC
S113019080916300909164002431310594F42D3EE4
S11301A03F4F8CF020916500309166002F3F3F4F08
S11301B061F020916700309168002F3F3F4F31F488
S11301C004C0C1E003C0C2E001C0C0E0C0990BC0DC
S11301D0C13009F58091690090916A008D32914097
S11301E0D0F08DDF18C0C23039F42091690030910D
S11301F06A002E31310570F020916B0030916C0053
S1130200B80122D0CB01019668E37CE10CD0281719
S1130210390708F084DF78948BE792E90197F1F7C6
S113022000C00000AACF0024552704C0080E591F9F
S1130230880F991F009729F076956795B8F3710593
S1130240B9F7802D952F0895AA1BBB1B51E107C058
S1130250AA1FBB1FA617B70710F0A61BB70B881F52
S1130260991F5A95A9F780959095BC01CD010895E1
S1070270F894FFCF2C
S10502743B0049
S9030000FC
